:100000000C9462000C948A000C948A000C948A0070
:100010000C948A000C948A000C948A000C948A0038
:100020000C948A000C948A000C948A000C948A0028
:100030000C948A000C948A000C948A000C948A0018
:100040000C944F020C948A000C948A000C948A0041
:100050000C948A000C948A000C948A000C948A00F8
:100060000C9499020C948A000000000024002700E0
:100070002A0000000000250028002B0000000000DE
:1000800023002600290004040404040404040202DA
:100090000202020203030303030301020408102007
:1000A0004080010204081020010204081020000012
:1000B0000008000201000003040700000000000027
:1000C0000000500511241FBECFEFD8E0DEBFCDBF2A
:1000D00011E0A0E0B1E0EEEFFAE002C005900D9271
:1000E000A233B107D9F722E0A2E3B1E001C01D922B
:1000F000A333B207E1F710E0C2E6D0E004C02197D5
:10010000FE010E947705C136D107C9F70E94B803E6
:100110000C947D050C940000E091DD01F091DE016E
:10012000309729F01092D8011092D70109940895C0
:10013000CF93DF93AC01E091DB01F091DC013097CC
:10014000F1F09091DA018091D9019817C0F090E018
:10015000292F30E02617370754F4D901AC5BBE4F86
:10016000240F351FE90128812C939F5FF1CF109256
:10017000DA016093D901CB01DF91CF910994DF912E
:10018000CF910895833081F028F4813099F0823046
:10019000A9F008958730A9F08830C9F08430B1F40F
:1001A000809180008F7D03C0809180008F77809345
:1001B0008000089584B58F7784BD089584B58F7DC0
:1001C000FBCF8091B0008F778093B000089580912D
:1001D000B0008F7DF9CF1F93CF93DF93282F30E0AE
:1001E000F901E255FF4F8491F901E656FF4FD49192
:1001F000F901EA57FF4FC491CC23A9F0162F8111C2
:100200000E94C200EC2FF0E0EE0FFF1FEE58FF4FF0
:10021000A591B4918FB7F894EC91111108C0D095C5
:10022000DE23DC938FBFDF91CF911F910895DE2BEA
:10023000F8CFCF93DF9390E0FC01E656FF4F249177
:100240008A579F4FFC0184918823D1F090E0880F5A
:10025000991FFC01E859FF4FA591B491FC01EE589C
:10026000FF4FC591D49161110EC09FB7F8948C9146
:10027000E22FE0958E238C932881E223E8839FBFB1
:10028000DF91CF9108958FB7F894EC91E22BEC9326
:100290008FBFF6CF85ED8093BC008091BC0084FDBC
:1002A000FCCF1092D601089520918401260F3327A8
:1002B000331F21323105ECF42091D601FC0190E08E
:1002C00080E0243069F082E00895A09184012191BA
:1002D000AC014C595E4FA40FB52FB11D2C93019664
:1002E000861798F380918401680F6093840180E001
:1002F000089581E008950895E091DA018091D9018F
:10030000E81730F4F0E0EC5BFE4F808190E0089558
:100310008FEF9FEF08959091DA018091D9012FEF2F
:100320003FEF981748F4E92FF0E0EC5BFE4F208197
:1003300030E09F5F9093DA01C90108958091D9015F
:100340009091DA01891B990B0895CF93DF93CB012C
:10035000EA01642F0E945401CE01DF91CF910895EC
:10036000CF93DF931F92CDB7DEB7698361E0CE01F3
:1003700001960E94540181E090E00F90DF91CF91AF
:100380000895CF93DF93E3EFF1E0A3E3B1E0819130
:1003900091912D913D918217930721F0ED012297C4
:1003A0009983888382E0E330F80789F761E08CE085
:1003B0000E94EB0060913201E3E4F1E03297660FB6
:1003C0008081680F81E0E333F807C1F76093320161
:1003D0008FED91E00E94B00160E08CE0DF91CF9161
:1003E0000C94EB0090E080E00895CF93DF93909120
:1003F000D9018091DA01981709F44EC061E08BE0D1
:100400000E94EB002FB7F8948091EB019091EC01E2
:10041000A091ED01B091EE012FBF8093EF01909379
:10042000F001A093F101B093F2018FED91E00E94F1
:100430008B01909143018A3069F0990F811108C0B6
:100440009093430160E08BE0DF91CF910C94EB003F
:100450009F5FF6CF892FE3E3F1E043EF51E0982F60
:100460009170C92FA0E0DA2F869521913191C217A2
:10047000D30749F0DA01CD93DC939F012250310973
:10048000D901CD93DC934E5F5F4FB1E0E334FB07BE
:1004900031F780934301D6CFDF91CF9108951F921A
:1004A0000F920FB60F9211242F933F938F939F9328
:1004B000AF93BF938091EB019091EC01A091ED017E
:1004C000B091EE013091CF0123E0230F2D3758F585
:1004D0000196A11DB11D2093CF018093EB01909354
:1004E000EC01A093ED01B093EE018091CB019091CE
:1004F000CC01A091CD01B091CE010196A11DB11DFD
:100500008093CB019093CC01A093CD01B093CE0109
:10051000BF91AF919F918F913F912F910F900FBEFF
:100520000F901F90189526E8230F0296A11DB11D6C
:10053000D2CF1F920F920FB60F9211242F933F9399
:100540004F935F936F937F938F939F93AF93BF93DB
:10055000EF93FF938091B900887F803609F44AC0F9
:10056000F0F5883209F4A7C018F5803109F49BC072
:10057000B8F4882309F4F9C0883009F494C0FF91D5
:10058000EF91BF91AF919F918F917F916F915F910B
:100590004F913F912F910F900FBE0F901F90189584
:1005A000883109F488C0803251F78093A70114C0C4
:1005B000803409F49DC040F48033B9F38833F9F6F0
:1005C0008093A70185ECB0C0803509F485C08835DB
:1005D00009F496C0883499F60E944A01D0CF883930
:1005E00009F48CC038F5883729F050F4883611F0BA
:1005F000803729F683E08093D6011092A60157C078
:10060000883809F47BC0803919F0803809F0B7CFF9
:100610008091A601803208F071C0E091A60181E0CE
:100620008E0F8093A6018091BB00F0E0EA57FE4F49
:1006300080833DC0803B39F0E0F4803A09F479C012
:10064000883A09F09CCF84E08093D601109285010E
:1006500010928401E091D201F091D301099580912B
:10066000840181110FC081E08093840110926401A4
:1006700009C0803C09F4A6CF883C09F4A3CF883B8D
:1006800009F07DCFE091850181E08E0F8093850197
:10069000F0E0EC59FE4F80818093BB009091850182
:1006A0008091840129C08091CA018093BB0085ECB0
:1006B0008093BC0064CF9091C9018091C8019817C4
:1006C00058F5E091C90181E08E0F8093C901F0E0F7
:1006D000E855FE4F8081E9CFE091C90181E08E0F9E
:1006E0008093C9018091BB00F0E0E855FE4F808304
:1006F0009091C9018091C8019817C8F285E8D8CFB8
:10070000E091C90181E08E0F8093C9018091BB0007
:10071000F0E0E855FE4F80838091D50181115CCFD8
:1007200081E08093D40184EA8093BC001092D601CA
:1007300026CF85EC8093BC001092D6018091A60153
:10074000803230F4E091A601F0E0EA57FE4F1082CB
:100750006091A60170E0E091D001F091D10186E8AE
:1007600091E009951092A6010ACF1092A70134CF0B
:10077000789484B5826084BD84B5816084BD85B57C
:10078000826085BD85B5816085BD80916E00816088
:1007900080936E001092810080918100826080932E
:1007A0008100809181008160809381008091800030
:1007B0008160809380008091B10084608093B1005B
:1007C0008091B00081608093B00080917A00846055
:1007D00080937A0080917A00826080937A00809181
:1007E0007A00816080937A0080917A00806880939B
:1007F0007A001092C10061E08CE00E94190161E072
:100800008BE00E94190161E08DE00E94190102E174
:1008100011E0C2E2D1E08881229660E00E941901D5
:10082000F80180810E5F1F4F61E00E941901F1E025
:10083000C233DF0781F71092DA011092D9011092CA
:10084000D8011092D7011092D60181E08093D50192
:100850001092D40161E082E10E94EB0061E083E14B
:100860000E94EB008091B9008E7F8093B900809147
:10087000B9008D7F8093B90088E48093B80085E447
:100880008093BC008CE890E09093D3018093D201D8
:1008900088E990E09093D1018093D00184E1809326
:1008A000BA0085EF91E09093DC018093DB0181EC4D
:1008B00091E09093DE018093DD0103EF11E0D0E041
:1008C000C0E0CE010E94610590E0F8018193919310
:1008D0008F012196C830D105A1F760E0462E60E077
:1008E000562E9BE2C92E92E0D92E23E0E22E22E082
:1008F000F22E3BE0832E32E0932E42E1A42E41E023
:10090000B42E03EF11E052E2652E51E0752EF30193
:10091000219131913F013327F901E255FF4F849135
:10092000F901E656FF4FC491F901EA57FF4FD49100
:10093000DD2309F4B2C081110E94C200ED2FF0E066
:10094000EE0FFF1FE458FF4FA591B491EC91CE2319
:1009500091E080E009F490E0C92FD82FF601808162
:100960008C171D0681F02FB7F8948091EB019091C0
:10097000EC01A091ED01B091EE012FBFF401808355
:100980009183A283B3832FB7F8948091EB01909168
:10099000EC01A091ED01B091EE012FBFF401419166
:1009A0005191619171914F01841B950BA60BB70B6F
:1009B000C397A105B105C8F0F70180818C171D060A
:1009C000A1F0F8012081318181E0209709F480E0D5
:1009D000F7018083209749F081E090E0232B11F00C
:1009E00090E080E0F80191838083F5018081F2E05E
:1009F000AF0EB11CF80160810E94EB00C170F601DE
:100A0000C1936F010E5F1F4FFFEFEF1AFF0A22E342
:100A1000621621E0720609F07ACF2FB7F894809120
:100A2000EB019091EC01A091ED01B091EE012FBF8F
:100A30004091EF015091F0016091F1017091F2014C
:100A4000841B950BA60BB70B81339547A105B10508
:100A5000C8F003EF11E0D0E0C0E0F801F0800E5FD5
:100A60001F4FCE010E946105F81621F06F2DCE01B7
:100A70000E94690561E08DE00E94EB002196C8307C
:100A8000D10559F760E08DE00E94EB00411451045C
:100A900009F427CF0E94000024CFD0E0C0E05ECF51
:100AA000EFEDF1E01382128288EE93E0A0E0B0E077
:100AB00084839583A683B78384E091E091838083C8
:100AC0000895F999FECF92BD81BDF89A992780B516
:100AD0000895262FF999FECF1FBA92BD81BD20BD82
:100AE0000FB6F894FA9AF99A0FBE01960895EE0F90
:0E0AF000FF1F0590F491E02D0994F894FFCFBC
:100AFE0000000000B001A501F2017B019E018B01F7
:100B0E007C011100120013001400100009000800EF
:100B1E000E0000000100030004000500060007009F
:020B2E000F00B6
:00000001FF
