:100000004DC071C070C06FC06EC06DC06CC06BC0A1
:100010006AC069C068C067C066C065C013C263C0FB
:1000200062C061C060C058C200002D0024002700DB
:100030002A0000002E00250028002B0000002C00C4
:10004000230026002900040404040404040402021A
:10005000020202020202030303030303030101017C
:10006000010301020408102040800102040810204E
:1000700040808001020408102001020408400000B2
:100080000000000000000003040000000000000069
:1000900000000000000000000000FE0411241FBE4C
:1000A000CFEFD2E0DEBFCDBF11E0A0E0B1E0E6E5EA
:1000B000FAE002C005900D92A033B107D9F722E013
:1000C000A0E3B1E001C01D92A133B207E1F710E057
:1000D000CEE4D0E003C02197FE01B5D4CD34D107E2
:1000E000D1F718D3B6C48CCFE091DB01F091DC01DD
:1000F000309729F01092D2011092D10109940895FD
:10010000CF93DF93AC01E091D901F091DA01309700
:10011000F1F09091D4018091D3019817C0F090E054
:10012000292F30E02617370754F4D901A755BE4FC1
:10013000240F351FE90128812C939F5FF1CF109286
:10014000D4016093D301CB01DF91CF910994DF916A
:10015000CF910895833031F4809180008F77809320
:10016000800008958430E9F7809180008F7DF7CF7B
:100170001F93CF93DF93162F87FF04C08F778830AC
:1001800040F58F5E282F30E0F901E258FF4F84914F
:10019000F901EE59FF4FD491F901EA5BFF4FC49189
:1001A000CC2399F08111D6DFEC2FF0E0EE0FFF1F8A
:1001B000EE5CFF4FA591B4918FB711110CC0F8946C
:1001C000EC91D095DE23DC938FBFDF91CF911F910F
:1001D00008958FEFD7CFF894EC91DE2BF4CFCF9327
:1001E000DF9387FF04C08F77883048F58F5E90E0FB
:1001F000FC01EE59FF4F24918A5B9F4FFC018491D3
:100200008823D1F090E0880F991FFC01E85DFF4F33
:10021000A591B491FC01EE5CFF4FC591D4916111A1
:1002200010C09FB7F8948C91E22FE0958E238C93A9
:100230002881E223E8839FBFDF91CF9108958FEF5C
:10024000D6CF8FB7F894EC91E22BEC938FBFF4CF1D
:100250000895E091D4018091D301E81730F4F0E0E3
:10026000E755FE4F808190E008958FEF9FEF08954E
:100270009091D4018091D3012FEF3FEF981748F46C
:10028000E92FF0E0E755FE4F208130E09F5F90932B
:10029000D401C90108958091D3019091D401891BA3
:1002A000990B089585ED8093BC008091BC0084FD7E
:1002B000FCCF1092D001089520916201260F3327C0
:1002C000331F21323105ECF42091D001FC0190E084
:1002D00080E0243069F082E00895A09162012191CC
:1002E000AC014E5B5E4FA40FB52FB11D2C93019650
:1002F000861798F380916201680F6093620180E035
:10030000089581E00895CF93DF93CB01EA01642F34
:10031000D3DFCE01DF91CF910895CF93DF931F926A
:10032000CDB7DEB7698361E0CE010196C5DF81E01C
:1003300090E00F90DF91CF910895CF93DF93E1EF9D
:10034000F1E0A1E3B1E0819191912D913D9182176E
:10035000930721F0ED0122979983888382E0E130B1
:10036000F80789F761E08CE003DF60913001E1E498
:10037000F1E03297660F8081680F81E0E133F80782
:10038000C1F7609330018DED91E0C7DF60E08CE054
:10039000DF91CF91EDCECF93DF939091D3018091F8
:1003A000D401981709F44BC061E08BE0E1DE2FB770
:1003B000F8948091E9019091EA01A091EB01B0914C
:1003C000EC012FBF8093ED019093EE01A093EF011C
:1003D000B093F0018DED91E04BDF909141018A30B7
:1003E00061F0990F811107C09093410160E08BE0AB
:1003F000DF91CF91BDCE9F5FF7CF892FE1E3F1E091
:1004000041EF51E0982F9170C92FA0E0DA2F869527
:1004100021913191C217D30749F0DA01CD93DC93D2
:100420009F0122503109D901CD93DC934E5F5F4F7C
:10043000B1E0E134FB0731F780934101D7CFDF9181
:10044000CF9108951F920F920FB60F9211242F9300
:100450003F938F939F93AF93BF938091E9019091C6
:10046000EA01A091EB01B091EC013091CD0126E0C1
:10047000230F2D3768F129E8230F0396A11DB11D25
:100480002093CD018093E9019093EA01A093EB01C1
:10049000B093EC018091C9019091CA01A091CB0168
:1004A000B091CC010196A11DB11D8093C90190931B
:1004B000CA01A093CB01B093CC01BF91AF919F91A2
:1004C0008F913F912F910F900FBE0F901F90189515
:1004D0000296A11DB11DD4CF1F920F920FB60F929D
:1004E00011242F933F934F935F936F937F938F9339
:1004F0009F93AF93BF93EF93FF938091B900887F51
:10050000803609F449C0E8F5883209F4A6C018F528
:10051000803109F49AC0B8F4882309F4F8C088300F
:1005200009F493C0FF91EF91BF91AF919F918F918B
:100530007F916F915F914F913F912F910F900FBEDF
:100540000F901F901895883109F487C0803251F7B9
:100550008093850114C0803409F49CC040F480333A
:10056000B9F38833F9F68093850185ECAFC0803507
:1005700009F484C0883509F495C0883499F692DE70
:10058000D1CF883909F48CC038F5883729F050F478
:10059000883611F0803731F683E08093D0011092D5
:1005A000840157C0883809F47BC0803919F080383D
:1005B00009F0B8CF80918401803208F071C0E091D9
:1005C000840181E08E0F809384018091BB00F0E074
:1005D000EC59FE4F80833DC0803B39F0E0F4803A17
:1005E00009F479C0883A09F09DCF84E08093D00166
:1005F0001092630110926201E091D701F091D8014D
:1006000009958091620181110FC081E080936201A0
:100610001092420109C0803C09F4A7CF883C09F43C
:10062000A4CF883B09F07ECFE091630181E08E0F7B
:1006300080936301F0E0EE5BFE4F80818093BB000E
:10064000909163018091620129C08091A8018093FB
:10065000BB0085EC8093BC0065CF9091A701809191
:10066000A601981758F5E091A70181E08E0F8093BD
:10067000A701F0E0EA57FE4F8081E9CFE091A701A2
:1006800081E08E0F8093A7018091BB00F0E0EA57D4
:10069000FE4F80839091A7018091A6019817C8F220
:1006A00085E8D8CFE091A70181E08E0F8093A70164
:1006B0008091BB00F0E0EA57FE4F80838091CF012C
:1006C00081115DCF81E08093CE0184EA8093BC00EC
:1006D0001092D00127CF85EC8093BC001092D001FE
:1006E00080918401803230F4E0918401F0E0EC5993
:1006F000FE4F10826091840170E0E091D501F0918D
:10070000D60184E691E00995109284010BCF1092F6
:10071000850135CF8091660080936600789485B519
:10072000887F826085BD789480916E00816080931F
:100730006E0080918100887F80938100809180008D
:10074000816080938000809180008D7F8093800005
:1007500080918100877F80938100809181008F7ECE
:1007600080938100809181008260809381008091DC
:100770007A008877836880937A0080917A00806815
:1007800080937A0061E08CE02ADD61E08BE027DD78
:1007900061E08DE024DD00E111E0C0E2D1E088817C
:1007A000229660E01CDDF80180810E5F1F4F61E042
:1007B00016DDF1E0C033DF0791F78CE08093BA00DB
:1007C00084E790E09093D8018093D70180E890E08F
:1007D0009093D6018093D5011092D4011092D30149
:1007E0001092D2011092D1011092D00181E0809339
:1007F000CF011092CE0161E085E1BADC61E086E1D3
:10080000B7DC8091B9008E7F8093B9008091B900E8
:100810008D7F8093B9008DEF8093B80085E480933D
:10082000BC008BEC91E09093DA018093D9018DE9C3
:1008300091E09093DC018093DB0101EF11E0D0E0C7
:10084000C0E0CE01ECD090E0F801819391938F014C
:100850002196C830D105A9F799E2C92E92E0D92E88
:1008600021E0E22E22E0F22E39E0832E32E0932EB8
:1008700040E1A42E41E0B42EC1EFD1E000E211E04E
:10088000F80120810E5F1F4F27FF05C02F7728300A
:1008900008F0AFC02F5E30E0F901E258FF4F8491BD
:1008A000F901EE59FF4F7490F901EA5BFF4F649034
:1008B000662009F4A0C081114DDCE62DF0E0EE0FBA
:1008C000FF1FE45CFF4FA591B491EC917E2231E0D3
:1008D00020E009F430E0832F922FF60120812817C1
:1008E000190681F02FB7F8944091E9015091EA017F
:1008F0006091EB017091EC012FBFF40140835183B3
:10090000628373832FB7F8944091E9015091EA0113
:100910006091EB017091EC012FBFF40121903190B7
:10092000419051904F01782E42195309640975097D
:10093000433351056105710598F0F70120812817AF
:10094000190671F0288139818083F1E08F1308C086
:1009500081E090E0232B11F090E080E09983888380
:10096000F5018081F2E0AF0EB11C688101DCF60177
:1009700071926F012296FFEFEF1AFF0A21E0003318
:10098000120709F07DCF2FB7F8948091E90190917B
:10099000EA01A091EB01B091EC012FBF4091ED0174
:1009A0005091EE016091EF017091F001841B950B65
:1009B000A60BB70B81339547A105B105B0F001EF48
:1009C00011E0D0E0C0E0F801F0800E5F1F4FCE01D3
:1009D00026D0F81619F06F2DCE0128D061E08DE0F9
:1009E000C7DB2196C830D10571F760E08DE0C0DB30
:1009F00033CF2FEF50CF90E080E06FCFEDEDF1E0FF
:100A00001382128288EE93E0A0E0B0E084839583A5
:100A1000A683B78384E091E0918380830895F99958
:100A2000FECF81BDF89A992780B50895262FF999B0
:100A3000FECF1FBA81BD20BD0FB6F894FA9AF99A7D
:100A40000FBE01960895EE0FFF1F0590F491E02D63
:060A50000994F894FFCFA9
:100A5600000000008D0183014B01380129012801A6
:100A660011001200130014001000090008000E0007
:100A760000000100030004000500060007000F0047
:00000001FF
